:020000040800F2
:1000000000500020610300085F0300085D03000842
:100010005D0300085D0300085D03000800000000A8
:100020000000000000000000000000005F03000866
:100030005F030008000000005F0300085F03000882
:100040005D0300085D0300085D0300085D03000810
:100050005D0300085D0300085D0300085D03000800
:100060005D0300085D0300085D0300085D030008F0
:100070005D0300085D0300085D0300085D030008E0
:100080005D0300085D0300085D0300085D030008D0
:100090005D0300085D0300085D0300085D030008C0
:1000A0005D0300085D0300085D0300085D030008B0
:1000B0005D0300085D0300085D0300085D030008A0
:1000C0005D0300085D0300085D0300085D03000890
:1000D0005D0300085D0300085D0300085D03000880
:1000E0005D0300085D0300085D0300085D03000870
:1000F0005D0300085D0300085D0300085D03000860
:100100005D0300085D0300085D0300085D0300084F
:100110005D0300085D0300085D0300085D0300083F
:100120005D0300085D0300085D0300085D0300082F
:100130005D0300085D0300085D0300085D0300081F
:100140005D0300085D0300085D0300085D0300080F
:1001500010B54FF4417000F09BF84FF400530022AB
:1001600002210B4800F01AF8094C4FF400512046C8
:1001700000F060F8074B00BF013BFCD14FF4005189
:10018000204600F055F8044B00BF013BFCD1ECE7E2
:100190000010014020AA440060E316002DE9F04160
:1001A00000264FF00F0E9C46036847684CFA06F491
:1001B000E4071BD5072E94BF9846B846B4B24FEA61
:1001C00084048ABF203CA4B2A4B20EFA04F528EA43
:1001D0000508A51CADB202FA05F501FA04F42C439A
:1001E00044EA0804072E94BF234627460136102E02
:1001F000DCD103604760BDE8F0810000024B08439A
:1002000040F080001860704700000140034A5368C6
:1002100023F0E0630B430343536070470000014049
:10022000024AD3690343D361704700BF0000014015
:100230000161704709040161704780680840704798
:10024000C36801EA030221EA030141EA02410161B4
:100250007047806880B27047C160704741F4803356
:1002600083618161836183698369704703680B439C
:1002700003607047036823EA010303607047036863
:10028000194301607047036823EA01030360704764
:100290000122430903F1804303F50433196800F098
:1002A0001F0002FA00F0084318607047012143095B
:1002B00003F1804303F504331A6800F01F0001FACC
:1002C00000F022EA0000186070470122430903F1A0
:1002D000804303F50433196800F01F0002FA00F0B0
:1002E000014319601A6822EA000018607047FFF79E
:1002F000CFBFFFF7DBBF0000034A536823F07063F2
:1003000043EA00635360704700100240032802D0A4
:10031000052806D07047064A136843F4802313600B
:100320007047034A136A43F004031362704700BF27
:1003300000100240032802D0052806D07047064A64
:10034000136823F4802313607047034A136A23F071
:1003500004031362704700BF00100240FEE77047BD
:1003600038B51A4A1A4B1B498B421AD300211A4A34
:1003700093421BD34FF0E022D2F8143D174C43F4C4
:100380000073174DC2F8143DAC4212D3154C164DF4
:10039000AC4212D3FFF7DCFE144C154DAC4210D327
:1003A00038BD52F8040B43F8040BDDE743F8041B97
:1003B000DEE754F8043B9847E6E754F8043B9847D7
:1003C000E6E754F8043B9847E8E700BFF403000869
:1003D000000000200000002000000020F4030008BE
:1003E000F4030008F4030008F4030008F403000811
:0403F000F40300080A
:04000005080003618B
:00000001FF
